:0A000000020457012600012501004B
:10000B000202B1E52514B4090050F890002475F0F4
:10001B0003A4C58325F0C5837302003F02005F0272
:10002B0000AB0200CC0200EB02011802018F0201AF
:10003B00A10201A712073DE525B402C71209147BE3
:10004B00FF7A0279207D027F021204E97BFF7A029C
:10005B007929803612070DE52A64BE7034752503A5
:10006B001209147A02793A1204E37BFF7A0279437C
:10007B007D02E4FF1204E97BFF7A0279517D03E4F0
:10008B00FF1204E97BFF7A02795F7D04E4FF020132
:10009B0089E52A647E600302000E75250402000EBA
:1000AB00120386E5256405600302000E750BFF75D0
:1000BB000C02750D6B7BFF7A02796612055A0200F2
:1000CB000E1207EE750BFF750C02750D6B7BFF7A2D
:1000DB0002797012055A7FE87E0312087802000E2F
:1000EB001205CAE5256406600302000E1209257588
:1000FB000BFF750C02750D157BFF7A027915120536
:10010B005A7BFF7A0279127D047F06807112062ECC
:10011B00E525B4081E750BFF750C02750D7A7BFF78
:10012B007A02797512055A7BFF7A0279127D047F68
:10013B0006804BE525B4091C1209147BFF7A027962
:10014B007F7D027F021204E97BFF7A0279887D03AF
:10015B007F01802AE5256407600302000E7FD07EB5
:10016B00071208781209147BFF7A0279937D017FBD
:10017B00021204E97BFF7A02799C7D037F01120452
:10018B00E902000E12096EE5256401600302000E00
:10019B001207C402000E1206D502000E120953E517
:1001AB00256401600302000E1207C402000EB5B1F4
:1001BB00C7B0A3BA00D6AEBAF3A3BA00C9E8B6A8C3
:1001CB00CBAECEBBA3BA00B5B1C7B0CBAECEBBA343
:1001DB00BA00B5CD00B8DF00B5C7B8E7C5C6CFB418
:1001EB00D2C2BBFA00BBB6D3ADCAB9D3C300BFC929
:1001FB00C6F4B6AF00BDF8CBAED6D000CDD1CBAEEA
:10020B00CAA32020C3EB004F4B00CFB4D2C2CAA36A
:10021B002020C3EB00BCCCD0F8CFB4D2C200C8B7FF
:10022B00B6A82020202020202020C8A1CFFB00C76B
:10023B00EBCAE4C8EBA3BA00CFB4D2C2CAB1B3A421
:10024B00A3BA20207300CDD1CBAECAB1B3A4A3BA4D
:10025B0020207300CBAECEBBA3BA00BDF8CBAE0053
:10026B00CFB4D2C200B6C1C8A100D4DDCDA300D497
:10027B00CBD0D000BDF4BCB1CDA3BBFA00D0E8B05D
:10028B00B4BCFCD6D8C6F400BBFAC4E3CCABC3C039
:10029B0000B8D0D0BBC4FAB5C4CAB9D3C3002010C0
:1002AB00080420040810C0E0C0F0C083C082C0D096
:1002BB0075D000C000C001C002C003C004C005C09F
:1002CB0006C007758CB1758AE012082F12076BEF09
:1002DB00FDE52D75F002A4FFC3ED9FE5F06480F8FA
:1002EB00748098500675996675250920011D30029A
:1002FB0016E52CC394197BFF40067A0279A980047A
:10030B007A0279AD120848B20280097BFF7A027932
:10031B00A9120848E52CC394324043752C00E52400
:10032B002430F52E7B007A00792E7D017F06120496
:10033B00E91524AD24E4FF120811A201E433FD7F7B
:10034B0001120811152E7B007A00792E7D027F0693
:10035B001204E920010AE5247006D2018002052C63
:10036B00D007D006D005D004D003D002D001D000E6
:10037B00D0D0D082D083D0F0D0E03212070DE52A56
:10038B001206AF03AD7703C97B03E57D03B4B70357
:10039B00D0BB03BBD703D7DB03C2E703DEEB000005
:1003AB0003EA750801052180367508020521802FA7
:1003BB00750803052180287508040521802175081F
:1003CB00050521801A750806052180137508070598
:1003DB0021800C750808052180057508090521E5A4
:1003EB00082430F509E52124FE601414601E240254
:1003FB0070368508297B007A0079097D0280248577
:10040B0008237B007A0079097D038017E508D394D4
:10041B00024005752102801085082D7B007A00793A
:10042B00097D047F051204E9E521C39403401CE513
:10043B002AB47E17752505E4F521AD237F0212083A
:10044B0011AD2D7F0312081185292422787FE4F644
:10045B00D8FD75812F02049E02000EE493A3F8E4ED
:10046B0093A34003F68001F208DFF48029E493A301
:10047B00F85407240CC8C333C4540F4420C883401A
:10048B0004F456800146F6DFE4800B0102040810E9
:10049B00204080900003E47E019360BCA3FF543F97
:1004AB0030E509541FFEE493A360010ECF54C02521
:1004BB00E060A840B8E493A3FAE493A3F8E493A311
:1004CB00C8C582C8CAC583CAF0A3C8C582C8CAC575
:1004DB0083CADFE9DEE780BE7BFF7D01E4FF8F137C
:1004EB008B148A158916E4F517EDC3940150027D20
:1004FB0001EDD3940440027D0453130FED24FE60F1
:10050B000F14601114601324037012430780800DC5
:10051B00430790800843078880034307987D0112A7
:10052B000861AB14AA15A9168517827583001206EC
:10053B0082FFC394204017E513D3940F50E41208A5
:10054B00B9051705137F0A7E0012087880D4228B19
:10055B00088A09890A1209147A0179B91204E37B12
:10056B00FF7A0179C07D02E4FF1204E97BFF7A0177
:10057B0079C77D03E4FF1204E97BFF7A0179D27D11
:10058B0004E4FF1204E9AB08AA09A90A7D017F0361
:10059B001204E9AB0BAA0CA90D7D027F031204E92F
:1005AB00E52D24FE600B0470157BFF7A0179DD804D
:1005BB00067BFF7A0179E07D037F051204E92212A5
:1005CB00082F12076B8F2712070DE527652860167A
:1005DB00E5272430F5087B007A0079087D047F0538
:1005EB001204E9852728E527C394024006E52D640C
:1005FB0001600CE527C39404401BE52DB402167B68
:10060B00FF7A0179F97D017F031204E9E52AB4BD74
:10061B0011752506227BFF7A0279007D017F03127B
:10062B0004E92212070DE52A2422601224F1600945
:10063B0024107010752508800B75995580037599DA
:10064B0044752509E524702E300307752507C2AFC5
:10065B008022852324750BFF750C02750D077BFF1C
:10066B007A02790712055A7BFF7A0279127D047F91
:10067B00061204E9D20322BB010CE58229F582E5BF
:10068B00833AF583E0225006E92582F8E622BBFE89
:10069B0006E92582F8E222E58229F582E5833AF51F
:1006AB0083E49322D083D082F8E493701274019385
:1006BB00700DA3A393F8740193F5828883E473748C
:1006CB0002936860EFA3A3A380DF12070DE52A64F2
:1006DB00BD6003C28C22D28C752506200111750BCF
:1006EB00FF750C02750D157BFF7A027915800F755E
:1006FB000BFF750C02750D077BFF7A02790712054C
:10070B005A227590F000AF900075900F00AE90EFED
:10071B004EFCF4601605227F057E00120878E52258
:10072B00C3940A4006E4F5228C2A22752AFF7590A1
:10073B00FF2212088E1209147BFF7A0179E37D02E6
:10074B007F011204E97BFF7A0179F07D047F0212AD
:10075B0004E97FD07E071208781208E07525022283
:10076B00EFC394C840047E048020EFC394964004EA
:10077B007E038016EFC3946440047E02800CEFC3AB
:10078B00943240047E018002E4FEAF0622E4FEEFC9
:10079B003392A700D2A600000000C2A6EF25E0FF0F
:1007AB000EBE08EBD2A700000000D2A6000000008E
:1007BB00A2A79205C2A6A2052212088EC2AFE4F52B
:1007CB0021F529F523F524F52DF527752805D200FC
:1007DB00C203C201F52BC202F52C752AFFF5227557
:1007EB002F2022E4FF1208CD8F247F011208CDEFBA
:1007FB0024FF92017F021208CD8F237F031208CDB5
:10080B008F2D75250522AC071208F27FA0120798D1
:10081B00AF04120798AF051207981209357F147EA3
:10082B0000020878C2B600D2B67F017E00120878AB
:10083B007590FF00C2B700AF90D2B7002253B0C380
:10084B00852B8275830012068242B0052BE52BB4F3
:10085B000403E4F52B22AE07ED6003120903C2A0DB
:10086B00C2A18E80D2A2D2A2D2A2C2A222EF1FAA72
:10087B000670011E4A600BE4FDEDC3947850EE0D3B
:10088B0080F7227D017F301208617F011208617FA2
:10089B00061208617F0C020861E4FED2A6EF25E088
:1008AB00FFA2A7E4334207C2A60EBE08EE22AE0794
:1008BB00120903D2A0C2A18E80D2A2D2A2D2A2C20E
:1008CB00A222AD071208F27FA0120798AF051207FC
:1008DB009812094422438920758DF3758BF3759813
:1008EB00505387EFD28E22D2A7D2A600000000C2AF
:1008FB00A700000000C2A6227580FFC2A0D2A1D221
:10090B00A2E58020E7FBAF80227D017F0112086109
:10091B007F341208617F30020861438901758CB105
:10092B00758AE0D2A9D2AFD28C22C2A700000000F8
:10093B00D2A600000000D2A7221208F27FA1120754
:10094B00981208A41209352212070DC2AFE52AB47A
:10095B00EE0375250122D2A0D2A1C2A2C2A2D2A2BD
:0F096B00AF802212070DE52AB4EE037525012295
:00000001FF
